:020000040800F2
:10000000004000205D0200089D1C0008A11C0008A3
:1000100000000000000000000000000000000000E0
:10002000000000000000000000000000A51C000807
:100030000000000000000000A91C0008AD1C000822
:10004000AD020008AD020008AD020008AD020008D4
:10005000AD020008AD020008AD020008AD020008C4
:10006000AD020008AD020008AD020008B91C00088E
:10007000AD020008AD020008AD020008AD020008A4
:10008000AD020008AD020008D11C0008AD02000856
:10009000AD020008AD020008AD020008AD02000884
:1000A000AD020008AD020008AD020008AD02000874
:1000B000AD020008AD020008AD020008E11C000816
:1000C00010B5064C2378002B07D1054B002B02D02E
:1000D000044800E000BF0123237010BDE4020020AB
:1000E0000000000098910008084B10B5002B03D0C9
:1000F0000749084800E000BF07480368002B00D10B
:1001000010BD064B002BFBD09847F9E7000000001C
:10011000E802002098910008E4020020000000009E
:10012000002243088B4274D303098B425FD3030A36
:100130008B4244D3030B8B4228D3030C8B420DD349
:10014000FF22090212BA030C8B4202D312120902D7
:1001500065D0030B8B4219D300E0090AC30B8B4215
:1001600001D3CB03C01A5241830B8B4201D38B03C3
:10017000C01A5241430B8B4201D34B03C01A524168
:10018000030B8B4201D30B03C01A5241C30A8B42AB
:1001900001D3CB02C01A5241830A8B4201D38B0296
:1001A000C01A5241430A8B4201D34B02C01A52413A
:1001B000030A8B4201D30B02C01A5241CDD2C309AC
:1001C0008B4201D3CB01C01A524183098B4201D328
:1001D0008B01C01A524143098B4201D34B01C01A13
:1001E000524103098B4201D30B01C01A5241C3088B
:1001F0008B4201D3CB00C01A524183088B4201D3FA
:100200008B00C01A524143088B4201D34B00C01AE5
:100210005241411A00D20146524110467047FFE751
:1002200001B5002000F006F802BDC0460029F7D055
:1002300076E770477047C04602780B78002A03D0F3
:10024000013001319A42F7D0D01A70470023C25CC6
:100250000133002AFBD1581E704700000D48854627
:100260000D480E490E4A002302E0D458C45004330E
:10027000C4188C42F9D30B4A0B4C002301E01360E5
:100280000432A242FBD301F065FF08F0ABFC01F0A1
:1002900059FAFEE70040002000000020E4020020A0
:1002A000B09A0008E4020020F0300020FEE70000D1
:1002B000014B18607047C0460003002030B5802510
:1002C00090242D02E40583B029002000002202F0D2
:1002D00001FA6B46D91D06230B70064B01221868E4
:1002E000642304F021FD01222900200002F0F2F92C
:1002F00003B030BD00030020F0B583B06B4680260C
:1003000090259C1D62233602ED0531002800002255
:10031000237002F0DFF96B46D91D05230B4F0B70DC
:1003200001225F33386804F0FFFC64232100386841
:10033000012204F0D5FD28000122310002F0CAF9A3
:1003400001202378184003B0F0BDC0460003002010
:1003500030B583B00500FFF7B1FF8021902009027E
:100360000022C00502F0B6F96B46D91D20230D4CC2
:100370000B7001224433206804F0D6FC03222900CC
:100380002068642304F0D0FC80219020012209021F
:10039000C00502F09FF9FFF7AFFF0028FBD103B0C3
:1003A00030BDC0460003002070B582B005000E00CD
:1003B000FFF784FF8021902009020022C00502F08F
:1003C00089F96B46D91D0223104C0B700122623350
:1003D000206804F0A9FC642303223100206804F0A3
:1003E000A3FC8022290052002068642304F09CFCB6
:1003F0008021902001220902C00502F06BF9FFF76D
:100400007BFF0028FBD102B070BDC0460003002076
:10041000F0B500234F4646461B4C0903C0B4A371F8
:100420000B0A637180231B0299469023090CDB059C
:1004300083B0060021711800494615000022984635
:1004400002F048F96B462700D91D032301CF0B703A
:100450000122613304F068FC2D0339006423032278
:10046000206804F061FCAAB264233100206804F023
:1004700037FD01224946404602F02CF903B00CBC7E
:1004800090469946F0BDC04600030020F8B54F469F
:10049000464600239046184D0903C0B4AB7180272F
:1004A0000B0A81466B714346090C7F0129712E1D91
:1004B0004F44002B1BD03000FFF74AFF4C46310061
:1004C0002000FFF771FF6B790133DBB26B71002BFA
:1004D00002D12B7901332B710134FF34A742EED1C5
:1004E0004246013A93B298464346002BE3D10CBCF6
:1004F00090469946F8BDC0460003002000B583B081
:10050000FFF7FAFE6B46C0B2D87107331B7803B011
:1005100000BDC04610B5044C6060A160E26023825B
:1005200004F0ACFD10BDC04608030020F8B5164C21
:100530002378002B26D10778467864213800FFF70E
:1005400075FEC8B20A21FFF7EBFD104DC0B22B5C5F
:100550000A2123753800FFF769FEC9B26B5C3000D1
:1005600063756421FFF762FEC8B20A21FFF7D8FD68
:10057000C0B22B5C0A21A3753000FFF757FEC9B249
:100580006B5CE375F8BDC04608030020B09100081D
:1005900010B5184C82B06368834201D002B010BD20
:1005A0000123227E7F20511C8B401900637EA218FC
:1005B00083430B43DBB201A90B706376137DA06804
:1005C0004B700222642304F0AFFB218A0122E06811
:1005D00002F080F8218A0022E06802F07BF8237E96
:1005E0000133DBB2042B01D02376D7E70023237637
:1005F000D4E7C0460803002010B5034800F094FF7C
:10060000024800F097FF10BD4D07000880920008D7
:1006100010B5084C86B001A90022200003F000FEAE
:1006200000226946200003F039FE01A8FFF77EFF93
:1006300006B010BDEC280020F0B55F4656464D468A
:100640004446F0B416001F000C0085B014220021AF
:100650000500300008F025FB04220021380008F0D6
:1006600020FB2378002B2AD02A78002A27D00A21C1
:100670008B468A468946FA21890003910A21029114
:10068000019131498846443BDBB22F2B0FD84146BC
:100690009B00CB589F465B46303A5A43B378584646
:1006A000D218B2700A21FFF73BFD83B29B4601349A
:1006B00023780135002B02D02A78002AE3D105B037
:1006C0003CBC90469946A246AB46F0BD0298303AF3
:1006D00042437B780A21D2187A70FFF721FD83B25A
:1006E0000293E4E70198303A4243BB780A21D218DA
:1006F000BA70FFF715FD83B20193D8E74B46303A45
:100700005A4333784846D21832700A21FFF708FD61
:1007100083B29946CBE70398303A4243FB780A21EB
:10072000D218FA70FFF7FCFC83B20393BFE753467D
:10073000303A5A4373785046D21872700A21FFF744
:10074000EFFC83B29A46B2E7C091000830B50522AB
:1007500087B01E49040008F081FB05000020002D31
:1007600014D16379303B092B12D919492000FFF7C6
:1007700063FD002806D1174A13780133DBB21370EA
:10078000052B20D0012000F09DF8012007B030BDDE
:1007900000F0A0FD104B01AAC1186B46601DFFF7C9
:1007A0004BFF0E4C002201A9200003F0F7FE0022AF
:1007B0006946200003F08AFF064B01201D7000F0FF
:1007C00081F80120E2E700F0BDFDDBE7F8960008C4
:1007D0000097000822030020AB020000EC28002054
:1007E00010B5FA22002482B00094084B92000F2129
:1007F000074800F011F88023FA2100941B0201221F
:100800004900044800F008F802B010BD0180000063
:10081000F905000811060008F0B557464E46454652
:10082000E0B4184F82463C68894616009846002C72
:1008300001D11DE01C006369002BFBD1182008F0DA
:1008400013FA051E60611AD05346AB6001F0DCFC60
:100850004B465E434346AB81089B28602B610023D7
:1008600028006E606B611CBC90469946A246F0BDA4
:10087000182008F0F9F9051E01D03860E4E70020DF
:10088000F1E7C0462403002010B500280CD00C4B23
:100890001A68002A08D0904203D10CE0984204D094
:1008A0001A005369002BF9D110BD59695161180024
:1008B00008F0E4F9F8E742691A600300F7E7C04678
:1008C00024030020024A9388834393807047C046E4
:1008D00024030020F0B5474680B401F095FC1E4F7C
:1008E0000500BB68984215D03C68B860002C11D058
:1008F000B988002600E01C0023686268EB1A934266
:1009000004D3A28993049B0C194206D06369260084
:10091000002BF0D104BC9046F0BDA0680B4380468C
:10092000BB80002802D02000C047A28913B2002B50
:100930000ADB002E01D0636973613B68A34207D0D4
:10094000200008F09BF9E5E75304F2D42560E1E7C5
:1009500063693B60F4E7C0462403002070B50500DE
:100960000E000F4C3C20210006F056FD210028000F
:1009700006F072FD21003E2006F04EFD2100300001
:1009800006F06AFD2100074806F066FD21002800F8
:1009900006F062FD2100044806F05EFD70BDC04611
:1009A000D01700200C9700081097000870B50400BD
:1009B00084B0002000F03EFE002801D004B070BDDD
:1009C0003A4E0A223A49300005F012FF0028F5D1CC
:1009D000384D3100280006F03FFD0A2201A9207899
:1009E00008F03DF9280001A90C30FFF7B7FF2100FE
:1009F0002800E431FF311430FFF7B0FF28002E4B00
:100A00001C30E118FFF7AAFF21002800DF31243055
:100A1000FFF7A4FF2100280017313030FFF79EFFB9
:100A200021002800F3313C30FFF798FF2100280017
:100A3000BC31FF314430FFF791FF21002800D03155
:100A4000FF315030FFF78AFF2800E11C5C30FFF7D0
:100A500085FF2800194B6430E118FFF77FFF28005D
:100A6000174B7030E118FFF779FF01200A2201A926
:100A7000205608F0F4F8280001A97830FFF76EFF3F
:100A80000A2201A9A07808F0EAF80E4C01A9201D5D
:100A9000FFF764FF200031000C3006F0DDFC300071
:100AA00006F01CFB00F0F6FD88E7C046D0170020DA
:100AB000149700088892000847020000AB0200006B
:100AC000CB02000008930008F8B5544C0F00210039
:100AD0000C3105001600FFF7AFFB002857D02100AE
:100AE00028001431FFF7A8FB002854D0210028006B
:100AF0001C31FFF7A1FB002854D02100280024312D
:100B0000FFF79AFB002853D0210028003031FFF76F
:100B100093FB002852D0210028003C31FFF78CFBCA
:100B2000002851D0210028005031FFF785FB002814
:100B300055D0210028004431FFF77EFB002855D016
:100B4000210028005C31FFF777FB002855D02100F9
:100B500028006431FFF770FB002853D021002800E3
:100B60007031FFF769FB002852D02100280078314E
:100B7000FFF762FB00282DD0294928000431FFF738
:100B80005BFB002806D13B78303BB37002E03B783A
:100B9000303B3370F8BD3000E4303900FF3008F0EE
:100BA00055F9F7E71F4B3900F01808F04FF9F1E756
:100BB00030003900DF3008F049F9EBE73000390048
:100BC000173008F043F9E5E730003900F33008F05A
:100BD0003DF9DFE7380007F0FFFF7070DAE730001B
:100BE000D0303900FF3008F031F9D3E73000BC30A5
:100BF0003900FF3008F02AF9CCE7F01C390008F082
:100C000025F9C7E7084B3900F01808F01FF9C1E7CC
:100C1000064B3900F01808F019F9BBE78892000874
:100C20000893000847020000AB020000CB0200005E
:100C3000F0B54F464646C0B40700BDB0002000F0F6
:100C4000F9FC002804D03DB00CBC90469946F0BD9C
:100C50001F4C01221F49200005F0CAFD0028F2D1D7
:100C60000C2290461C4B1D4D9844A368E2689342A9
:100C70002AD02200EF21684606F0A8FB002823D0E6
:100C800008222900684608F0E9F80028EDD009227A
:100C90004146684608F0E2F80028E6D06B463E215F
:100CA000581C08F0C5F800239946461C03700C49EF
:100CB000300008F0E5F84B4603706B463A0031000F
:100CC000581CFFF701FFD0E7200006F007FABAE74B
:100CD000D017002014970008089300088892000895
:100CE0000C97000810B5034800F024FC024800F0FF
:100CF0001BFC10BD20930008ED0F000870B52949BA
:100D000084B00400FFF798FA002819D02649200083
:100D1000FFF792FA002805D024492000FFF78CFA4B
:100D200000280AD10023002200930021013320482B
:100D3000FFF772FD0120FFF7C5FD012004B070BD73
:100D40001C4B1A785E1C2F2A25D002A800F0E0FB6D
:100D5000194D0138C4B2012231002800039405F076
:100D600047FD0028E9D1661C32000021029807F0F7
:100D700098FF03AB22000299280005F0D3FE039BE5
:100D8000029899B200F0E4FB039B9C42ECD028004F
:100D900006F0A4F9D1E75B78002BD6D1074E0836D0
:100DA000D3E7C046209700082C9700083497000826
:100DB000A110000830030020D01700202093000865
:100DC00030B50E4C83B021000D4806F0F1F9050056
:100DD000200006F0B1F9002D0ED1012300220021E0
:100DE00000950848FFF718FDFA220095064B92007F
:100DF0000A210648FFF710FD03B030BD40970008F8
:100E0000CC160020A110000801800000E50C0008AD
:100E100070B5614908F050F860490400002008F0FE
:100E20004BF8060000F056FA5D4905002000FFF778
:100E300003FA002867D05B492000FFF7FDF900287E
:100E400000D17DE058492000FFF7F6F9002860D076
:100E500056492000FFF7F0F9002800D176E0544908
:100E60002000FFF7E9F9002800D176E05149200081
:100E7000FFF7E2F9002800D175E04F492000FFF7A5
:100E8000DBF900284CD04D492000FFF7D5F90028A8
:100E900000D16EE04A492000FFF7CEF9002800D1CA
:100EA0006CE048492000FFF7C7F9002830D04649D8
:100EB0002000FFF7C1F9002838D044492000FFF78F
:100EC000BBF9002832D042492000FFF7B5F90028CD
:100ED0001ED140493000FFF7AFF9002853D03E49FA
:100EE0003000FFF7A9F9002850D03C493000FFF747
:100EF000A3F900284DD03A493000FFF79DF90028AA
:100F000006D1287004E028003100F33007F09EFF7E
:100F100070BD2800D0303100FF3007F097FFF7E7B1
:100F2000304B3100E81807F091FFF1E73378002BE0
:100F3000EED02800E4303100FF3007F087FFE7E70C
:100F400028003100173007F081FFE1E72800BC30AE
:100F50003100FF3007F07AFFDAE728003100DF3098
:100F600007F074FFD4E7204B3100E81807F06EFF5C
:100F7000CEE7E81C310007F069FFC9E7300007F051
:100F80002BFE6870C4E703232B70C1E702232B708C
:100F9000BEE701232B70BBE7489700084C97000879
:100FA0005097000858970008649700086897000851
:100FB0006C970008789700088097000888970008C9
:100FC00094970008A0970008AC970008B497000811
:100FD000BC970008C4970008CC970008D497000875
:100FE000D897000847020000CB02000010B5164950
:100FF0000400FFF721F9002817D014492000FFF75B
:101000001BF9002816D012492000FFF715F9002817
:1010100015D005220F49200007F020FF002801D03D
:10102000002006E0601DFFF7F3FE0120FFF74AFCF9
:10103000012010BD00F04EF9FFF7B8FCF5E700F015
:10104000E3FA0020F5E7C046E0970008EC970008B7
:10105000F89700080498000870B5051E10D02F23DB
:101060000D4C0E492370002308316370FFF7E4F83C
:10107000002803D0601C290007F0E8FE200070BDA6
:10108000054B1A785C1C2F2AF8D15B78002BF5D120
:10109000024C0834F2E7C0463003002020930008D9
:1010A00010B51E4C88B002A9200006F001F96B466D
:1010B0005B7C002B01D000280BD00120FFF702FC45
:1010C000200006F0CBF800F0E5FA00F011FE08B0C1
:1010D00010BD6B461B7CDB060AD500900123002265
:1010E00000210F48FFF798FB0120FFF7EBFBEEE72D
:1010F0000C4800F01FFA11206844FFF7ADFF00F024
:1011000019FA00F03DFA02980A2100F02DFA00F0D9
:101110003FFA054800F008FAD9E7C046CC1600208F
:10112000A11000080C980008FD0C000810B502483A
:1011300000F000FA10BDC0463493000810B504005A
:101140000E48103000F0F6F9E01C00F0F3F900F062
:1011500017FA0B4BE01800F0EDF900F011FA01203E
:101160000A21205600F000FA00F00AFAA0780A21BD
:1011700000F0FAF900F00CFA10BDC04634930008F4
:10118000AB02000010B5040011481C3000F0D2F989
:101190002000173000F0CEF900F0F2F92000DF3027
:1011A00000F0C8F900F0ECF90A4BE01800F0C2F9C1
:1011B00000F0E6F901200A21205600F0D5F900F0F0
:1011C000DFF9A0780A2100F0CFF900F0E1F910BDB5
:1011D00034930008AB02000010B5040015482C3011
:1011E00000F0A8F92000F33000F0A4F900F0C8F9ED
:1011F0002000173000F09EF900F0C2F92000BC304A
:10120000FF3000F097F900F0BBF92000D030FF303C
:1012100000F090F900F0B4F92000DF3000F08AF916
:1012200000F0AEF9044BE01800F084F900F0B0F9DA
:1012300010BDC04634930008AB02000010B5094948
:101240000400FEF7F9FF002805D007492000FEF74B
:10125000F3FF002804D10120FFF734FB012010BD6B
:101260000020FCE7349800082898000810B50448CE
:101270003C3000F05FF9034800F056F910BDC0465D
:10128000349300084914000810B50448443000F0B5
:1012900051F9034800F048F910BDC04634930008E6
:1012A00081140008E42310B5074CFF33E35C002BE6
:1012B00009D0064800F038F92378054A9B00D31876
:1012C000DB6C2000984710BD400300203D12000851
:1012D00034930008004870474003002030B50024D4
:1012E000114D83B02868FFF7CFFA00940F4B104AD6
:1012F00001211048FFF790FAFA2228600123009498
:10130000920001210C48FFF787FA012300220021F7
:1013100000940A48FFF780FA094D2868FFF7B4FAED
:101320002C6003B030BDC046EC16002001800000E8
:1013300060EA00006D12000889120008A51200087A
:10134000F016002030B50B4C83B02068FFF79CFAF4
:101350000025FA22084B92001E2100950748FFF74E
:101360005BFA2060064C2068FFF78EFA256003B018
:1013700030BDC046F016002001800000ED130008CB
:10138000EC16002070B515490400FEF755FF051E48
:1013900017D013492000FEF74FFF03000020002B59
:1013A0000ED1104B1B68002B14D053220E498B5CBE
:1013B000142B0CD001338B540120FFF783FA01204A
:1013C00070BDFFF78BFF5323074AD554F4E7002382
:1013D0008B54F1E7FFF7B6FFE7E7C0462098000817
:1013E0002C980008F0160020C0050020E42310B55A
:1013F000104CFF33E35C002B04D10F4B1B68002B18
:1014000015D010BD0D485C3000F094F82000E43099
:10141000FF3000F08FF800F0B3F8094BE01800F04F
:1014200089F800F0B5F8074800F07EF8E9E7FFF723
:1014300089FFE6E740030020F016002034930008FF
:10144000470200008513000810B50B490400FEF7A1
:10145000F3FE00280CD009492000FEF7EDFE00281D
:1014600004D10120FFF72EFA012010BD0020FCE777
:10147000FFF768FFF5E7C0463C9800085098000861
:1014800070B511490400FEF7D7FE002815D00F49AA
:101490002000FEF7D1FE00280FD003220C492000C7
:1014A00007F0DCFC00280AD10A4D6B6D002B01D03F
:1014B000E01C984700236B6501E0FFF743FF012024
:1014C000FFF700FA012070BD6498000870980008CA
:1014D00080980008C005002010B5040082B00A48BA
:1014E000FFF7A6FB200000F019F800F059F80023E0
:1014F000FA2200939200013306210448FFF78CF989
:10150000FFF75EFC02B010BD40030020ED130008A1
:10151000014B0360C9207047F4160020014B18608E
:101520007047C046C4170020014B18607047C04682
:10153000C017002010B50400FEF788FE034B82B2EE
:1015400021001868802304F00DF910BDC417002095
:1015500010B50400034B0A0018682100802304F032
:1015600001F910BDC417002000B589B00A00694612
:1015700007F075FB6846FFF7DDFF09B000BDC04608
:1015800010B50248FFF7D6FF10BDC04610980008FE
:1015900010B50248FFF7CEFF10BDC0464C970008BB
:1015A00010B5034BC8221868024903F0C3FE10BDF2
:1015B000C4170020F4160020094B10B51B68094C15
:1015C000002B01D020009847C8220021200007F0FE
:1015D00068FB054BC8221868210003F0ABFE10BD64
:1015E000C0170020F4160020C417002010B50349CE
:1015F000034806F00FF9034B187010BDC817002000
:1016000058000020CC170020084A10B5138808485D
:101610005B045B0C1380FE2301225B00C254183371
:10162000C35801795B68984710BDC046585C0040BC
:10163000A42A002010B5124C2378012B1DD00028BD
:101640000BD101220F49104805F094F8002801D071
:10165000022010BD01232370FBE70C4A0C481388BD
:1016600001795B045B0C1380FE2301225B00C254F2
:101670001833C3585B689847E3E70020E9E7C046A2
:1016800018060020C8170020FC170020585C0040F6
:10169000A42A002010B5084C2378002B0BD001227F
:1016A0000649002005F066F8054A064913880B43F1
:1016B00013800023237010BD18060020C8170020D7
:1016C000585C00400080FFFF282300B599B00B93C1
:1016D000273B1393129300230BA8149302F048F9AD
:1016E000002800D0FEE70723029000930390043BFC
:1016F00001216846019302F011FC002800D0FEE7AA
:101700000F4B0790049380230A909B0004A8059335
:1017100002F0D8FC002800D0FEE702F0BDFCFA2160
:101720008900FEF7FDFC00F0C5FD042000F0DEFDA1
:10173000012000220021404200F07EFD19B000BDD2
:1017400002000300F0B544465F4656464D46F0B4ED
:1017500095B000F041FDFFF7B7FFA34800F05AFD38
:101760008023A24D9B026A6980261A436A616A69D6
:10177000F60113400393039B80236A69DB021A433B
:101780006A616A6931001340049300229848049BFF
:1017900000F0A0FF802390201B0201221900C00549
:1017A0000127984600F096FF0A9600260AAC210011
:1017B0008F486760A660E66000F0A0FE4346902078
:1017C0000A9303232100C005E3606760A66000F070
:1017D00095FE6B6900223B436B616B6900213B40C6
:1017E00002930B20029B00F027FD0B2000F058FD18
:1017F000804D814B28002B6000F08EFD002800D02A
:10180000FEE7042360601022210028000A9300F004
:1018100099FD002800D0FEE7784D794B68602B6079
:101820007F232861AB6068618033A8612800EB608A
:1018300002F062FE002800D0FEE705A9087048709B
:101840008870C86008610022280002F0A7FE002806
:1018500000D0FEE701A9C870002228000F704F7069
:101860008F7002F033FF002800D0FEE720232070A5
:101870006070A0706060E06020616061A061E06104
:10188000E7540022E03321002800636202F034FDB7
:10189000002800D0FEE75B4E5B4BB06033608223D4
:1018A0005B009B467360E023DB009A46F3600223F3
:1018B00099463361FF33FF33B361F93BFF3BF3617B
:1018C00030627062B062013B3063706330007761F8
:1018D000F36203F0B9F9002800D0FEE74B4D4C4B02
:1018E000A8602B605B466B605346EB604B462B61F8
:1018F00080239B00AB61F13BFF3BEB612862686298
:10190000A862093B2863686328006F61EB6203F0FB
:101910009BF9002800D0FEE73E4F3F4BB8603B608C
:10192000E1235B027B600C23F8603861B861F861E9
:101930003862786238007B6103F0C6FF8246002877
:1019400000D0FEE7FFF752FE344B99464A46344B2F
:10195000484613604B4652465A609A604246DA60E7
:1019600052469A6103F0A8FC002800D0FEE720232D
:101970000A93002321004846636003F0B7FC002867
:1019800000D0FEE7274B98464246274B90601360F5
:10199000FA239B005360D22390614046D36003F04A
:1019A0008BFC002800D0FEE72060606021004046EC
:1019B00003F09CFC002800D0FEE73000FEF778FC26
:1019C000FEF79CFD0020FFF735FE3800FFF784FD91
:1019D000FEF706FF8023064ADB0129004046FEF79A
:1019E00099FDFEF777FFFCE7DC05000000100240E0
:1019F00000040048D828002000740040EC28002093
:101A00000028004090290020003001407428002068
:101A100000380040F4290020004400400C29002038
:101A200000100040642A002000140040FEE7C04679
:101A30000120134B00B5996983B0014399619A69FC
:101A400002400092009A8022D96952051143D9615F
:101A5000DB6900211A40019206380022019B00F048
:101A6000EBFB022000220021404200F0E5FB0120B8
:101A700000220021404200F0DFFB03B000BDC04661
:101A800000100240F0B51D4B026887B004009A4276
:101A900001D007B0F0BD8023194A9B05D169902081
:101AA0001943D161D269202613400093009B00277F
:101AB0000323C00501A902930196039700F01EFDC0
:101AC000104D114B28002B6010236B607033EB60BE
:101AD00080332B618023DB006B61C0239B01AF60EF
:101AE000AE61EB6100F04AFC002802D1E5606C6257
:101AF000CFE774210548FFF799FFF7E7007400402E
:101B0000001002404C290020440002408898000840
:101B1000054B02689A4200D070478021034A0902AF
:101B2000136A0B431362F7E70028004000100240DD
:101B300000B50368164A89B093421DD0154A9342F6
:101B400001D009B000BD8023134ADB01D1691943DC
:101B5000D161D26913400293029BA0231B0203931D
:101B6000022303220493002303A90C480593069241
:101B7000079300F0C3FCE4E78023074A5B01916907
:101B800019439161926913400193019B3823E6E761
:101B900000300140003800400010024000040048BE
:101BA00000B50368124A83B0934204D0114A9342AD
:101BB0000BD003B000BD10200F4AD1690143D161A1
:101BC000D36903400093009BF3E720200A4AD169C0
:101BD0000143D161D36900210340019300220E38F3
:101BE000019B00F029FB122000F05AFBE1E7C04600
:101BF00000100040001400400010024070B5214B5E
:101C0000026886B004009A4201D006B070BD8023FD
:101C10001D4A9B02D16990201943D161D2690026E7
:101C200013400093009B0C2301930A3B0293013362
:101C30000493C005023B01A90593039600F05EFCE6
:101C4000124D134B28002B608023EB6080239B01F7
:101C50006E60AE602E616E61AE61EB6100F08EFB76
:101C6000002808D180210B4A890413680B431360B4
:101C700065666C62C9E77E210748FF31FFF7D6FE33
:101C8000F0E7C04600440040001002403028002029
:101C90006C00024000000140889800087047C04670
:101CA000FEE7C0467047C0467047C04610B500F01A
:101CB000A3FA00F02DFB10BD10B5034800F0D0FBD7
:101CC000024800F0CDFB10BD4C2900203028002038
:101CD00010B5024803F0E4F910BDC046642A0020A4
:101CE00010B5024801F0F8F910BDC046C82C00201C
:101CF00010B5094C00220949200005F0AFFD084944
:101D0000200005F0C5FD0749200006F069FA200013
:101D100005F0C8FD10BDC046A42A00201800002010
:101D2000DC0000203400002000B50D4B026883B0B9
:101D30009A4201D003B000BD80230A4A1B04D16936
:101D40001F201943D161D269002113400193002261
:101D5000019B00F071FA1F2000F0A2FAEAE7C046EA
:101D6000005C0040001002400100872310B59B007A
:101D7000ED31FF31C05805F0AFFD10BDCB005B1A4F
:101D80009B00C3181933FF331A68872310B59B00D3
:101D9000C05805F0D5FD10BDCB005B1A9B00C318E1
:101DA0009A6B872310B59B00C05805F005FE10BD47
:101DB000872310B59B00C05805F094FE10BDC046A7
:101DC00070B587240500A4000121005905F072FEBA
:101DD000285905F04BFE70BD872310B504009B0009
:101DE000C05805F06BFEA369002B04D00623024AFD
:101DF00011690B43136110BD00ED00E0836910B55C
:101E00000400002B06D00621054A13698B43136199
:101E1000FFF75AFC87239B00E05805F05BFE10BDDE
:101E200000ED00E0872370B504001B489B00C45000
:101E30000433E050194B022203600823436000235F
:101E40008260C36002618361C361036200F048FC89
:101E5000002804D09A2112484900FFF7E7FD8825A1
:101E6000AD00605918230022002101F063FD605984
:101E700058230022802101F05DFD60599823002243
:101E8000812101F057FD6059D8230022012101F082
:101E900051FD002070BDC046C82C0020005C0040F1
:101EA000C098000888239B00C05810B500F066FC5D
:101EB0000223032801D8024B1B5C180010BDC0464A
:101EC000A493000810B514001A0088239B00C05882
:101ED000230000F077FC0223032801D8014B1B5C90
:101EE000180010BDA493000888239B00C05810B5AB
:101EF00000F0E6FD0223032801D8024B1B5C18000A
:101F000010BDC046A493000888239B00C05810B59C
:101F100001F00EFD0223032801D8024B1B5C1800C0
:101F200010BDC046A493000888239B00C05810B57C
:101F300001F036FC0223032801D8024B1B5C180079
:101F400010BDC046A493000888239B00C05810B55C
:101F500001F088FC0223032801D8024B1B5C180007
:101F600010BDC046A493000888234AB29B00C05805
:101F7000002A07DBCB00591A890041180B31FF31C9
:101F800008787047A23BFF3B0B40D900C91A890073
:101F900041182A310878F4E788239B00C05810B50F
:101FA00000F0F6FB0223032801D8024B1B5C18004B
:101FB00010BDC046A493000810B58824A4000059A1
:101FC00000F05EFF0223032801D8024B1B5C1800BF
:101FD00010BDC046A493000810B58824A400005981
:101FE00000F030FE0223032801D8024B1B5C1800CE
:101FF00010BDC046A4930008882310B59B00C058AC
:1020000000F034FF10BDC046004870471C06002099
:102010007047C046122301480B8070470000002023
:10202000042302480B8014307047C0460000002093
:1020300010B5044C0A000448210005F07BFF200085
:1020400010BDC046E82E0020F098000810B5044CE2
:102050000A000448210005F06DFF200010BDC046B5
:10206000E82E00200099000810B5044C0A0004482E
:10207000210005F05FFF200010BDC046E82E0020C3
:102080000899000810B5044C0A000448210005F026
:1020900051FF200010BDC046E82E0020189900080E
:1020A00010B5044C0A000448210005F043FF20004D
:1020B00010BDC046E82E00202499000880231B0193
:1020C0000B6080235B010020138070470020704765
:1020D0000020704710B5080011001A00FEF7D6F96D
:1020E000002010BD10B5080011001A00FEF790F98D
:1020F000002010BD10B5FEF7FFF810BD002070479E
:102100000122024B1A701878C0B2704754000020A8
:102110000020704710B5FEF7EFF8034BC0B21870FF
:102120001878C0B210BDC04654000020080011004D
:1021300010B59AB21031FEF76BF9002010BDC04601
:102140000800110010B59AB21031FEF79FF9002077
:1021500010BDC0460121114B1A680A431A60586825
:102160000F4A02405A6018680E4A02401A60186806
:102170000D4A02401A6058680C4A02400F205A600B
:10218000DA6A8243DA62186B094A02401A635A6BB0
:102190008A435A6300229A607047C046001002408A
:1021A0000CB8FF08FFFFF6FEFFFFFBFFFFFFC0FFBD
:1021B0002CFEFCFF10B5040001F06EFFFA2189002F
:1021C000FDF7AEFF00F076F801200022210040422A
:1021D00000F032F8002010BD1023064A10B5116837
:1021E00000200B431360FFF7E5FFFFF721FC002001
:1021F00010BDC04600200240024A1368013313603C
:102200007047C046E8300020014B18687047C04650
:10221000E830002030B583B00190FFF7F5FF019C56
:102220000500631C5A1E9341E418FFF7EDFF401BA5
:10223000A042FAD303B030BD70B5002814DB0324EC
:1022400083082040FC342600134AC0259446C00071
:1022500089018640214081409B006344AD005A596A
:10226000B2431143595170BD03240F23C0B2034040
:102270002040FC342500094AC0009446890185406D
:1022800021408140083B9B089B006344DA69AA43D4
:102290001143D961E7E7C04600E100E000ED00E04E
:1022A0001F2318401E3B8340014A13607047C046FD
:1022B00000E100E00A4A431E012093420ED8C020EC
:1022C000084A094953600B6A00061B021B0A0343B4
:1022D0000B62002300209360073313607047C046F1
:1022E000FFFFFF0010E000E000ED00E0042805D053
:1022F0000421054A13688B4313607047024B1A6828
:1023000010431860F9E7C04610E000E07047C0468F
:1023100010B5FFF7FBFF10BD10B5041E0FD00379F9
:10232000DBB2002B07D0022323710023002023619E
:102330000133237110BD4371FFF7A4FBF3E70120C4
:10234000F8E7C04630B5447903000220012C11D0D3
:10235000094C1D68944018712868A0430C684968AE
:10236000214391400A0002432A6001221A7100228F
:1023700000205A7130BDC046FE0F000070B5041E2B
:102380002BD02125022343550068154B0268A16814
:102390001A4063680B43E1680B4321690B43616991
:1023A0000B43A1690B43E1690B43134303600D4BDE
:1023B00014219C466044FDF7B3FE0B4B0122E363FE
:1023C0000023800020640020A362E3622363636330
:1023D000A36362551F32A35470BD0120FCE7C046C1
:1023E0000FC0FFFFF8FFFDBF00000240F0B5202442
:1023F000055D0226012D08D0012521270555C55D63
:10240000EDB2012D03D0002303553000F0BD0024B0
:10241000C65584630468076C2668AE43BD402660D9
:10242000C66B756063604368102B0ED0A160E260DC
:10243000C36A2268002B0BD00E23134323600123B1
:102440002268002613432360DFE7A260E160EFE724
:102450000A23134304222360236893432360EEE797
:10246000F8B504252E00036CC46B9E4022680168F9
:102470000F6816420DD03D420BD00B689B0602D46C
:102480000B68AB430B60C36A6660002B00D09847B3
:10249000F8BD02252E009E40164214D03D4212D0B7
:1024A0000B689B0606D40A220B6893430B6021231A
:1024B000093AC254202300226660C254836A002B6A
:1024C000E6D09847E4E708252E009E403242DFD050
:1024D0003D42DDD00A680635AA430A600122110098
:1024E0009940212361608263C2540022013BC2549F
:1024F000036B002BCCD09847CAE7C046F0B55F46C7
:1025000056464D464446F0B40B6885B08B469C4613
:102510000022002B00D1BAE0674BE1469A46674B98
:1025200098466EE0016856008C460321B14064462F
:10253000C9430C40A44603241C40B44067462743CB
:102540000760019F013F012F00D883E05C46C5680A
:102550002940A568B5402943C160802149050B4247
:102560004BD0514601248969032721435446A16178
:10257000A16901240F262140514C1740A446BF00F9
:10258000BE409024039103999108890061448D68AD
:10259000E405B543A04200D180E04A4EB04200D1EC
:1025A0007EE0494EB04200D17DE0484EB04200D1BD
:1025B0007CE0474EB04200D17BE00526BE4035436B
:1025C0008D604146009C0968E543DC035CD42940EA
:1025D0004446216061689C0353D4294044466160AD
:1025E000A168DC024AD429404446A160E1689B020C
:1025F00041D429400C004346DC604B460132D340B5
:1026000045D001254C4695402C400094F5D05B46C2
:102610005B6810211F008F430197022F82D107268C
:102620000F241640B600B440D108890041180F6A43
:10263000A7435C462469B44026003E430E62032152
:102640005600B1400324C9431C40B44007680F4002
:10265000274307605C46E4688768B4400F4027431F
:10266000012487604768AF433D001F09274097401A
:102670003D4345606AE7009C0C43BCE7009C214356
:10268000B2E7009C2143A9E7009C2143A0E705B0E5
:102690003CBC90469946A246AB46F0BD00268EE76C
:1026A0000126BE408BE70226BE4088E70326BE40D7
:1026B00085E70426BE4082E7001002400004014086
:1026C000000001400004004800080048000C0048D9
:1026D00000100048002A01D1816270478161FCE747
:1026E00070B5041E45D0EA23FF33C35CDBB2002B78
:1026F00039D0EA230322FF33E254230060682833F1
:10270000002101250022002818D0197001315D70C8
:10271000DA70DA601A615A611C338142F5D1230004
:10272000002100220933FF33197001315A70DA7029
:10273000DA601A615A611C338142F5D140220121CD
:102740002368442099520021995219520C30195291
:1027500009490020995224230022E254EA2301224D
:10276000FF33E25470BDF42252008354FFF7DCFAC9
:10277000BFE70120F6E7C04600BFFFFF58228023D5
:1027800001681B02885A03438B5200207047C046E1
:10279000F42210B55200845C03000220012C0AD000
:1027A00001389854002907D024229954F42200219A
:1027B00000205200995410BD9D3A18688031FF3AAC
:1027C0008152F3E7F0B547464DB280B4002D5DDB92
:1027D000CC00641AA4000934FF3404192170F421D8
:1027E000ED0FE3706570E2604900455C0223012D46
:1027F00048D0013B4354E378012B5BD0002B00D140
:102800002FE1022B00D123E1032B47D0036821786D
:102810009F4E8D005D192F88B04637409D4E314345
:1028200039432980A17A002950D16178002900D14B
:10283000D7E05022995A22780125D2009A185218CE
:102840008021C9008C46A1886244A9431180227866
:1028500092009A1811884D0608D546460E408E49BA
:102860000E431680227892009A18118820238B4EEE
:102870000E405E40874B1E431680F42300225B000F
:10288000C2540023180004BC9046F0BD7F242140B0
:10289000CC00641AA400283404199FE72178036847
:1028A000890059180E887E4D3540C026F600354304
:1028B0000D80ACE721780368890059180E88784D9F
:1028C00035408026F60035430D80A0E7502722785A
:1028D000744992009A1815882940734D2943118034
:1028E0002278D95BD20052188021C9008C4601257C
:1028F000E188D2186244A94311802278D95BD200C2
:10290000D218521869498C4621896244A943118022
:102910006278002A33D1227892009A1811884D04E7
:1029200008D546460E4062490E4316802278920032
:102930009A1811884D0608D5554E3140564E3143F0
:102940001180227892009A181188514E3140524ECF
:10295000314311802178574A890059180D882A403F
:10296000C025AD016A404B4D2A430A8022784B496D
:1029700092009B181A880A402A431A807DE7227821
:1029800092009A181588690408D5464648492E4091
:102990000E431680227892009A181588690608D589
:1029A0003B4E2E403C4D2E431680227892009A18C2
:1029B000158837490D402E003D490E431680227878
:1029C000364992009A1815882940324D29431180C2
:1029D0002278384992009B181A880A402A431A80A4
:1029E0004BE750272178DD5BC90049192F4D01269F
:1029F000AC46A588C9186144B5430D802178DD5BDC
:102A0000C90049192C4DAC466144C9183E2A34D935
:102A10005509D20638D0294AAD0215430D802278D7
:102A200092009A181588690408D519490D40204963
:102A30000D431580227892009A1815882B001D49A5
:102A40000B40C02189014B4012490B43138014E70E
:102A500021780368890059180E88114D35400D8082
:102A6000D5E621780368890059180E880C4D354049
:102A70008026B60035430D80C9E65508164200D0C1
:102A80000135AD020D80CAE7013DADB2C3E7C046D6
:102A90000F0F00008080FFFFC080FFFFBF8FFFFF90
:102AA0008F89FFFF0F0E00008081FFFF04040000EC
:102AB00080C0FFFF8FBFFFFF060400000080FFFF04
:102AC0004AB230B5002A62DBCB005B1A9B000933A7
:102AD000FF33C3181970F421D20F5A704900445CB7
:102AE0000222012C51D0013A42549A7A002A14D180
:102AF0005A780568002A52D01A789200AA181488C9
:102B0000610608D549490C4049490C4314801A789C
:102B10009200AA181488474951E05A780468002A9C
:102B200053D01A789200A21811884D0408D53F4D51
:102B30002940414D294311801A789200A21811882A
:102B40004D0608D5394D2940394D294311801A7851
:102B50009200A2181188354D2940374D2943118024
:102B60001A7834499200A21815882940334D294318
:102B700011801B7832499B00E3181A880A402A43C7
:102B80001A80F42300225B00C254100030BD7F2362
:102B90001940CB005B1A9B002833C3189AE71A78B8
:102BA0009200AA181488610408D520490C402249D3
:102BB0000C4314801A789200AA1814882049230024
:102BC0000B401E490B431380DBE71A789200A218D2
:102BD00011884D0408D5154D2940174D2943118002
:102BE0001A789200A21811884D0608D50F4D294079
:102BF0000F4D294311801A789200A21811880B4DAD
:102C000029400B4D294311801A780D499200A218D2
:102C100015882940094D294311801B7805499B00DF
:102C2000E3181A880A402A431A80AAE70F0F000007
:102C3000C080FFFFBF8FFFFF80C0FFFF8080FFFFCE
:102C40008FBFFFFFF0B57F2457464E4645462140D3
:102C5000E0B4CD006C1AA400041926002700193630
:102C6000FF36326000221D37FF373B60B2600F3EF7
:102C700032701534013E3170FF342468A3423AD9D2
:102C80001B1B3B6023006A1A920082181400133445
:102C9000FF342478002C30D1502604680932FF32EA
:102CA000A75B16786C4AF600F619A218B6183E2BE8
:102CB00000D889E05A0992B2DB0601D1013A92B2FA
:102CC000664B92021A433280691A89004018093013
:102CD000FF300278624B9200A218118800200B404E
:102CE000C02189014B405F490B4313801CBC9046B7
:102CF0009946A246F0BD3A60C5E717000A37FF378C
:102D00003E78BA460468002E38D10932FF32503678
:102D10001278A65BD2009219534EA61992193E2B37
:102D20005BD91F275E09B6B21F40B446BA4601D12F
:102D3000013EB6B2B602B1464F46484E37436E1A10
:102D4000B6008619178032000A32FF321278002A44
:102D500069D150230936FF363278E35AD200D218AF
:102D60003D4BE318D21863465646002E01D1013B75
:102D70009BB23A4E9B0233431380A5E7012EA3D1A9
:102D80005027BC46E75BB94684277F00B84690448D
:102D900042461278344FD2004A44B94612194A4486
:102DA000138052461278002A3DD16246A75A424605
:102DB0001278D200D219284FE719D2193E2B45D8E4
:102DC0001E405B089BB227E05A0892B2DB0701D590
:102DD000013292B29202328076E75E08B6B2B44611
:102DE000012667461E4001D00137BFB2BF021780DF
:102DF0006F1ABF00C7193A000A32FF321278002A50
:102E000011D150230937FF373A78E35AD200D2184C
:102E1000114BE318D2186346002E01D001339BB248
:102E20009B02138050E7012A00D04DE74F32A65A8B
:102E30006A1A920082180932FF321278D200A21860
:102E40009219054EB446624413803DE71F271F4088
:102E50005B09BA469BB287E7060400000080FFFFCB
:102E60008FBFFFFF8080FFFF020400007F23194017
:102E7000CB00591A890040182130FF300088704774
:102E8000F0B54E4657464546E0B47F263140CE0069
:102E9000741AA4000419A263220000250127293214
:102EA000E3632564013A57701170626B994693424F
:102EB00000D890E091469B1AE363741AA4000419A9
:102EC0002200323212780368002A3ED198464B46DF
:102ED0001F048023A26BA48D3F0C01374444DB0008
:102EE0007F08E318002F09D05478157824022C436A
:102EF000013F1C8002320233002FF5D1502243469D
:102F00009C5A6D4BC2469C464B46721A92008218E0
:102F100028321278D2001219424462441380761A81
:102F2000B6008019283003789B0053441A881F008C
:102F3000624B0020134030225340614A13433B80D0
:102F40001CBC90469946A246F0BD22002832127859
:102F500029349500ED5A9A4624786B063DD5002C0D
:102F600054D0012C00D19AE0721A92008218148E6B
:102F7000721A92008218936B9C464B461A04802367
:102F8000DB0053449846120C01325208A0446346B9
:102F9000002A0BD05C781D7824022C4365464746F6
:102FA0005D1B013AEC530233002AF3D1731A9B00E4
:102FB000C3181A0029321278002A45D0012AAED14E
:102FC00028331B783F4A9B0053441C8822403E4CC8
:102FD00022431A80A3E7E5636FE7002C2DD1534607
:102FE00050341C5B344BD20012191C004B46544425
:102FF00012193E2B3DD95C09A4B2DB0601D1013C7C
:10300000A4B2324DA4022C43148018E0534650342D
:103010001C5B2F4BD20012191C004B465444121952
:103020003E2B1CD95C09A4B2DB0601D1013CA4B241
:10303000264DA4022C43148096E7012C23D0721A4B
:1030400092008218D48D93E728331B781D4A9B0089
:1030500053441C8822401F4C22431A805FE74B4692
:103060005C08A4B2DB0701D50134A4B2A402148029
:103070007AE74B465C08A4B2DB0701D50134A4B261
:10308000A4021480DBE753464F341C5B0A4BD2008A
:103090009C464B461219524462441380CFE7534674
:1030A0004F341C5B0A4BD2009C464B4612195244CB
:1030B0006244138058E7C04602040000BF8FFFFF40
:1030C0008080FFFF0F0F000080C0FFFF0080FFFF28
:1030D00006040000C080FFFFF0B54D465F4656462F
:1030E00044464422F0B4036885B09A5A050012B2EF
:1030F000002A00DA71E04422995A49054AD4442250
:10310000995A490403D5985AC34901409952442217
:10311000995A890403D5985AC049014099524424C8
:103120001A5BD20426D44422995A09050FD5985A1D
:10313000BB4901409952402108205C5A2043585213
:1031400004205C5A204358529A5AD2043ED5442255
:10315000995A890531D44422995AC90503D5985AF8
:10316000B0490140995205B03CBC90469946A246F0
:10317000AB46F0BD40220420995A81439952AA4996
:1031800028009952FEF73AFE2B68A84A195B0A40BC
:103190001A53C8E7985AA649014099522800FEF7E9
:1031A0000FFEF4225200AB5C012B14D04C21802086
:1031B0002B6858520021A954A1E7985A9D49014013
:1031C00099522800FEF7F4FD2B68C4E72800FEF7AB
:1031D00003FE2B68BBE72B6891E7002202A9CA8097
:1031E000443291464A469A5A02A992B28A8012B251
:1031F000002A00DB7FE702AA94880F22144047D1FF
:1032000002AA9288D20600D424E11A8802A9CA80B0
:10321000C988090500D49CE05022995AB832AA5CAA
:103220002F00D20052188449D2188C46624412886A
:10323000ED37960594462A000932B60DFF329661A5
:103240009288FF37D3188022D200904676084344F4
:10325000002E0ED039001C003000228801380A7080
:10326000120A4A70023402310028F6D176009B1906
:10327000BF196246D20701D51B883B702A686F4B85
:10328000118828000B401380FEF76EFD2B68A9E71C
:10329000A6009919088802AAD080D28812B2002A02
:1032A00000DA04E1802102AAD28811429AD09E1944
:1032B0003188634A0A40E10032800A1B9200AA1852
:1032C000100032300078002800D062E150301F5AE0
:1032D0005C48824610009A44564628300078C00068
:1032E000C019805B8005800D106416D00130400845
:1032F00040008046976B8020928DB844D2189C463F
:103300004346C00016187A78387812020243023712
:10331000328002369F42F6D163460C1BA4002C1962
:103320002100502228319A5A0B782800DB005344A0
:103330009A5AA36B92059C46920D2264E36B6244F9
:10334000A2630978002B00D0ADE0FEF725FD2B68C5
:1033500048E702A9C98809B2002900DB42E73749DA
:103360002C000A401A805022995AB832AA5C0934BB
:10337000D20052183049D2188C4662441288FF3469
:1033800094469205920DA26123D05708A288216924
:10339000D3188022D20090468A464344002F0DD095
:1033A0001E003800328801380A70120A4A7002364C
:1033B00002310028F6D17A009B1892446246D20767
:1033C00002D552461B881370A26923699446634450
:1033D000236100212800FEF7D1FC502216492B68FA
:1033E0008C469A5AE0689A1862443E2800D8B3E1A5
:1033F000410989B2C00601D1013989B21248890256
:10340000014311801988114A0A40C02189014A40AC
:103410000F490A431A80E5E6FFBFFFFFFFDFFFFF0A
:10342000FFF7FFFFFFFEFFFF00BDFFFFFFEFFFFF06
:10343000FFFBFFFFFFFDFFFF060400008F0F0000F2
:103440000F8FFFFF020400000080FFFF8FBFFFFF10
:103450008080FFFF1988CB4A28000A4028211A8063
:103460005022695C9A5AC9005B189B18C64A002111
:103470009446AA6B634494461B889B059B0D2B6462
:103480006344AB63FEF788FC2422AB5C002B0CD0BA
:10349000E96B002909D18020AC5C2B6820434C24C7
:1034A0001853A9549EE6FFF7EBFC2B689AE6B74A3F
:1034B00010400880E1000A1B9200AA181000133087
:1034C000FF300078002800D09FE050301F5A1000D5
:1034D0000930FF300078C000C019AD4FC018BC469D
:1034E0006044008883468005800D8446674600203E
:1034F000002F26D010000D32FF3212881930D31859
:103500008022D2009046FF300068984482467808B6
:1035100001900ED0524647463B88013813701B0A73
:103520005370023702320028F6D1019B5B009844A9
:103530009A445B46DB0703D5434652461B8813700B
:1035400060460F1BBF00EF193A002132FF321368AB
:103550001B1813603B001933FF331A6812181A60E6
:1035600004331B689846002B08D08A235B009C46D6
:10357000BC4463461B68834200D8F9E00B1B9B00E8
:10358000EB180933FF3319782800FEF7F7FB2B6897
:1035900088E61000283000788600F65A760600D4B7
:1035A0008AE050269F5B784EC000B2469A44564649
:1035B000C019805B8005800D106418D00130400870
:1035C000400080468020C0008446976BD28DB8446E
:1035D000D218944466469C4643467A78387812025C
:1035E00002430237328002369F42F6D163460A1BFD
:1035F0009200AA1828321278664892009A18178802
:103600003840654F3843108087E610000930FF309E
:103610000078824687005020185AB84684465046A3
:1036200098444746C000604482463F889A447804E4
:103630006CD55548844650466044008884468005D1
:10364000800D019000D190E017000F32FF321288F8
:103650001937D3188022D2009346FF373F684008BD
:103660009B44BA468046031E0DD058460288013B53
:103670003A70120A7A7002300237002BF6D14346B4
:103680005B009B449A446346DB0703D55B46524686
:103690001B8813700B1B9B00EB180933FF331A7840
:1036A0002B6892009C46624417880198394B1F4052
:1036B0003A4B1F43178044E750269E5BC000801999
:1036C000334EC018B446604400888005800D1064F5
:1036D00018D0013040084000966B178E8446802237
:1036E000B444D20090466246FF189C4613004744FB
:1036F000727830781202024302363A8002379E42D4
:10370000F6D16346204A92469A4470E720488446A0
:1037100050466044008884468005800D019024D086
:1037200017001132FF3212881937D3188022D200C5
:103730009346FF373F6840089B44BA468046031EC5
:10374000A1D058460288013B3A70120A7A700230C2
:103750000237002BF6D192E7410889B2C00701D5A4
:10376000013189B2890211804CE6424600209DE772
:103770000937FF37434639782800FFF763FA2B688B
:1037800090E5C0460F8FFFFF020400008F0F00007E
:10379000060400000F0F000080C0FFFFC080FFFF85
:1037A000F42310B55B00C45C02000220012C24D07D
:1037B0000138D0544BB2002B20DBCB005B1A9B00AE
:1037C000D3181C000B34FF34207018000930FF3070
:1037D000017000200A33FF33187000292AD11168C4
:1037E0001B4B088803401B4843401B4803430B8086
:1037F000F423002100205B00D15410BD7F23194029
:10380000CB005B1A9B00D3181C002A34207029338C
:10381000023C217018700029E1D0136889009C4691
:10382000614408880D4B0340102043400A4803437D
:103830000B80DDE7136889009C4661440888084BCB
:103840000340802040014340034803430B80CFE7FF
:10385000BFBFFFFF101000008080FFFFBF8FFFFF82
:103860008FBFFFFF4AB230B5002A43DBCB005B1AA3
:103870009B000933FF33C31800241970F421D20FC1
:103880005A709C704900445C0222012C17D0013A06
:1038900042545A780568002A13D01A789200AA1860
:1038A000148861062ED423001B490B4030214B4065
:1038B0001A490B431380F42300225B00C25410000A
:1038C00030BD1A789200AA181488610408D51449EA
:1038D0000C4014490C4314801A789200AA181488DA
:1038E000230011490B40C02189014B400B490B4378
:1038F0001380E0E77F231940CB005B1A9B0028333D
:10390000C318B9E706490C4008490C4314801A78DB
:103910009200AA181488C6E7BF8FFFFF8080FFFFC0
:103920000F0F000080C0FFFF8FBFFFFFC080FFFFB1
:103930000020704710B50C060FD57F242140CC0025
:10394000611A890028314018002A0ED00122C38054
:103950001B0C82720381002010BDCC00611A89000B
:103960000931FF314018002AF0D182728380F2E7DA
:10397000F0B54F464646C0B4036883B00400DA078A
:103980002FD50C20C5494A680240042A00D141E1E4
:103990004A680240082A00D133E16368012B00D154
:1039A000A3E1002B00D13FE1052B00D1FBE1BB4B94
:1039B000BB4A19680A401A601968BA4A0A401A6074
:1039C000FEF722FC80250700B44EAD0205E0FEF7AD
:1039D0001BFCC01B642800D96CE133682B42F6D075
:1039E00023689A072AD50C21AC4A5068014200D1BD
:1039F000EBE050680140082900D1DDE0E368A74D05
:103A0000002B00D178E101232A68022713432B60A1
:103A1000FEF7FAFB060005E0FEF7F6FB801B022826
:103A200000D947E12B689D4A1F42F5D0F820136862
:103A300021698343C9000B43136023681A0700D52B
:103A4000A2E05A0740D580230020944A5B05D16943
:103A50008046194208D1D1691943D161D269134016
:103A60000193019B0123984680278F4E7F00336886
:103A70003B4200D1FDE0A368012B00D109E1002BFE
:103A800000D119E1052B00D1F0E10121834B1A6A25
:103A90008A431A621A6A03318A431A62FEF7B4FB38
:103AA0007E4F81460226814D06E0FEF7ADFB4B4678
:103AB000C01AA84200D9FDE03B6A1E42F5D0434639
:103AC000012B00D168E12368DA0612D56269012A68
:103AD00000D1ABE1053200D021E10420F8256F4987
:103AE0004A6B82434A634A6BA069AA43C0000243FF
:103AF0004A639B0622D50C21684A53680B400C2B65
:103B000000D12BE153680B40082B00D11FE1236A41
:103B1000624D002B00D12CE180266B6B7602334383
:103B20006B63FEF771FB070005E0FEF76DFBC01B42
:103B3000022800D9BEE06B6B3342F6D0636A002BDB
:103B40001CD00C21554D6A680A40082A44D02A68C6
:103B5000022B00D133E1564B2C0013402B60FEF7B3
:103B600053FB80250600AD0405E0FEF74DFB801BEE
:103B7000022800D99EE023682B42F6D1002003B032
:103B80000CBC90469946F0BDE369444D002B25D00E
:103B900001236A6A022613436B62FEF735FB0700B6
:103BA00005E0FEF731FBC01B022800D982E06B6AFA
:103BB0001E42F6D0236844E75168C02252020A40F0
:103BC000802109028A4200D018E7344A126892071D
:103BD00043D5E268012A40D00120D0E701226B6A78
:103BE000022693436B62FEF70FFB070004E0FEF72B
:103BF0000BFBC01B02285DD86B6A1E42F7D12368FD
:103C00001FE7C022496852020A40802149028A42C5
:103C100000D0C2E6214A1268920300D4E1E662684D
:103C2000002A00D0DDE6D7E71C4D1D4B2A68802610
:103C300013402B602A681B4BB60213402B60FEF723
:103C4000E3FA070004E0FEF7DFFAC01B642831D86E
:103C50002B683342F7D12368C3E6F8250F48216962
:103C60000268C900AA430A4302601A0700D4E8E6C2
:103C70008AE733683B433360FEF7C6FA050004E089
:103C8000FEF7C2FA401B642814D833683B42F7D0D1
:103C9000F1E6024A116A0B431362FFE6001002408C
:103CA000FFFFFEFFFFFFFBFF0070004088130000D6
:103CB000FFFFFFFE032062E70122714E0227336AF5
:103CC000704D93433362336A033293433362FEF79A
:103CD0009BFA814605E0FEF797FA4B46C01AA842C8
:103CE000E8D8336A1F42F6D1E9E68021644A4902E6
:103CF00013680B43136063E601222B68022693438B
:103D00002B60FEF781FA070004E0FEF77DFAC01B86
:103D10000228CFD82B681E42F7D123688EE60423F1
:103D2000574D02266A6B134301226B636B6B9343FF
:103D30006B63FEF769FA070004E0FEF765FAC01B43
:103D40000228B7D86B6B1E42F7D12368D1E65368BF
:103D5000C02252021340934200D0D8E6484B5B6B1E
:103D6000DB0300D4EAE6236A012B00D1E6E601205A
:103D700005E76A6B444B802613406B63FEF744FAF9
:103D80007602070004E0FEF73FFAC01B022891D834
:103D90006B6B3342F7D1D1E6394A3C4BD1690B40CA
:103DA000D361236890E68021354BC9021A680A4323
:103DB00080211A601A6849020A431A6000E6344BEF
:103DC000802713402B60FEF71FFABF04804606E0F1
:103DD000FEF71AFA4346C01A022800D96AE72B6890
:103DE000274E3B42F4D10F22F36A9343226B1343D5
:103DF000F362A26AE16A73681143264A8024134081
:103E000080220B4373603368520413433360FEF720
:103E1000FBF9A404050005E0FEF7F6F9401B0228B3
:103E200000D947E733682342F6D0A7E60423144DB0
:103E30000227696B0B436B636B6B1A436A63FEF774
:103E4000E3F9060005E0FEF7DFF9801B022800D940
:103E500030E76B6B0A4A1F42F5D0F820536BA1691B
:103E60008343C9000B435363236842E60422044B97
:103E7000196A0A431A620122196A0A431A620DE694
:103E80000010024088130000FFFFFEFFFFFFFFEF5E
:103E9000FFFFFFFEFF7FC2FF30B51C4C89B0102230
:103EA0002100684604F0F4FE21001022103104A81D
:103EB00004F0EEFE0C2316494A681340082B06D086
:103EC0000C2B02D0134809B030BD1348FBE70F2577
:103ED0006B46900C28401C5CCB6A102069462B4036
:103EE0000918C95CC02380205B021A40400282424C
:103EF00001D09A4204D00748FCF712F96043E2E788
:103F00000548FCF70DF96043DDE7C046E49300087F
:103F10000010024000127A00006CDC02F8B5464640
:103F20004F460C000121564AC0B4136806000B40EE
:103F3000A3420CD213688B432343136013681940C8
:103F40008C4204D001200CBC90469946F8BD3368E1
:103F50009A0706D5F0204B494A688243B06802436D
:103F60004A60DB0728D57368464A012B50D0022BE4
:103F700048D0032B60D012689207E3D50321414D4E
:103F80006A688A4313436B60FEF73EF97368070063
:103F9000012B41D0022B53D0032B61D00C23984628
:103FA000394B994604E0FEF72FF9C01B48452DD840
:103FB00042466B681A42F6D10121314A13680B4020
:103FC0009C4205D213688B43136013681942B9D120
:103FD00033685B0706D52B492C4B4A681340F268BF
:103FE00013434B60FFF758FF264B294A5B681B06BB
:103FF0001B0FD35CD840274B18600020FEF7DAF87F
:104000000020A0E712689201B8D49BE703209AE74A
:1040100012689203B2D495E70B3398461A4B99462F
:1040200004E0FEF7F1F8C01B4845EFD842466B6844
:104030001340042BF5D1BFE7526BD2039ED481E726
:104040000A339846104B994604E0FEF7DDF8C01B92
:104050004845DBD842466B681340082BF5D1ABE7E7
:1040600009339846084B994604E0FEF7CDF8C01B8B
:104070004845CBD842466B6813400C2BF5D19BE7E3
:10408000002002400010024088130000FFF8FFFFEC
:10409000CC9300086C000020014B18687047C046A4
:1040A0006C000020044B054A5B685B055B0FD35C2A
:1040B000034A1068D840704700100240DC930008A3
:1040C0006C000020F0B54F464646C0B4036883B08C
:1040D0000400DA0339D5802300204A4A5B05D16900
:1040E0008046194208D1D1691943D161D269134080
:1040F0000193019B012398468026434D76002B684F
:10410000334267D0C0213F4D89002B6A0B405FD0FE
:10411000626811408B420ED08026286A296A760296
:10412000314329622E6A394B3949034031402962B3
:104130002B62C3073DD43349344B086A03401A430A
:1041400043460A62012B55D02368DA0706D50320BF
:104150002C490A6B8243A06802430A639A0706D57A
:1041600028492C4A086B0240E06802430A639A0619
:1041700006D5102023490A6B8243206902430A6353
:104180009A030ED400205B0506D540221D490B6B17
:104190009343626913430B6303B00CBC904699468A
:1041A000F0BD802017490A6B8243A06902430A636D
:1041B000E8E7FEF729F8184B07000226994604E0C5
:1041C000FEF722F8C01B48451AD82B6A1E42F7D0CA
:1041D0006268B0E72B6833432B60FEF715F80700E1
:1041E00004E0FEF711F8C01B642809D82B6833429D
:1041F000F7D087E7CA69094B1340CB612368A4E76E
:104200000320C9E70010024000700040FFFCFFFFE0
:10421000FFFFFEFFFFFFFCFF88130000FFFFFFEF23
:104220000068F0B5836A47464B60036900685B0429
:104230005B0C8B60184B9046034040227F2080B47B
:104240001F0C06003A403F24CA7042461D0AEDB2D8
:10425000DBB23C402E4018400C704E708870002A33
:1042600015D12409A20014190F2264001740E41983
:10427000360900090C70B400A619840020187600D5
:104280001540400013407619C0184E708870002009
:1042900004BC9046F0BDC0467F7F7F000368F0B548
:1042A0005868144B03401F201C0A1F0CDDB2E4B2F7
:1042B0001B0420405B0FCF7048708D700B70002A7C
:1042C00015D13B099A00D3180F225B000009174053
:1042D000DF1983001818400014402B09001948709A
:1042E0009800C3185B0015405B19CF708B700020DD
:1042F000F0BDC0463FFFFF00F8B54D465F4656464D
:104300004446F0B4037F05000220012B00D185E074
:10431000012368772B77002A00D085E040242A68A3
:1043200093681C4000D098E0CC702A680B78002776
:10433000092B06D90A3BDBB20137092BFAD83F011A
:10434000FFB23B431F044B780020092B06D90A3BE0
:10435000DBB20130092BFAD80001C0B218430302C6
:1043600099468B780026092B06D90A3BDBB2013629
:10437000092BFAD83601F6B2334398462023CB5C9A
:10438000092B00D877E000260A3BDBB20136092B67
:10439000FAD83601F0B284464869CE690643344300
:1043A0003C43260048466446064340461C430643B9
:1043B00024062643B0464B68FA269B468B690127A4
:1043C0009A46CA235362773B536291682B4BB600DF
:1043D0000B40936091682A4B0B409360FDF714FFEC
:1043E000814605E0FDF710FF4B46C01AB0423AD8AF
:1043F0002B68DC683C40F5D042465146DA615A46AB
:104400000A4380215A649A6849000A439A60FF224D
:104410005A6201236B77002300202B773CBC904627
:104420009946A246AB46F8BD40262A6893681E40CE
:1044300016D1CE702A684B69C86918438B7803433C
:104440000878000403434878000203432020085CF6
:104450000006034333439846ADE7CC78240465E770
:10446000CE783604E7E7FF222B6803205A62032345
:104470002C776B77D2E7002084468DE7FFFEFFFFA5
:10448000FFEFFFFFA0210268F8B5D36804008B435B
:10449000D360FDF7B9FEFA2607002025B60004E038
:1044A000FDF7B2FEC01BB04205D82368DB681D4291
:1044B000F6D00020F8BD0320FCE7C046F8B503683D
:1044C0000400DA68520601D50020F8BD01225242EC
:1044D000DA60FDF799FEFA2607004025B60004E0F1
:1044E000FDF792FEC01BB04204D82368DB681D4272
:1044F000F6D0E9E70320E8E770B5041E48D0437F13
:10450000DBB2002B40D00223CA226377236820004D
:104510005A62773A5A62FFF7D1FF2368051E2DD100
:1045200099681C4A0A409A609A6861680A4321693E
:104530000A4361690A439A60E268A1681A611A69CC
:1045400009040A4380211A61DA688A43DA609A68AA
:1045500092060DD5196C104A0A401A641A6CA169AA
:104560000A431A64FF225A6201236377280070BD50
:104570002000FFF787FF23680028EBD0FF225A6254
:10458000042301256377F1E70377FDF7C1FABAE762
:104590000125EBE7BFFF8FFFFFFFFBFFF8B5037FB0
:1045A00004000D000226012B5CD00123467706682B
:1045B0000377B368002A57D140271F4062D1CF70DC
:1045C000066829780023092906D90A39C9B20133B6
:1045D0000929FAD81B01DBB26A78194309040020C3
:1045E000092A06D90A3AD2B20130092AFAD80001BA
:1045F000C0B2AB78024310020022092B60D90A3BFB
:10460000DBB20132092BFAD81201D2B294460A0069
:1046100061463A4302430B431A431700CA237362AD
:10462000773B73622000FFF749FF061E30D1254B10
:1046300020683B4003608268234B1340836083689B
:10464000EA6813432A69134380228360C368934353
:10465000C36083689B0624D5FF234362FE3B6377D8
:10466000002323773000F8BD402119400DD1E970B7
:1046700006682F786B783F041B021F43AB781F43FB
:104680000F43CBE7CF783F049BE7E9780904F0E7D5
:10469000FF22236801265A620423637700232377CD
:1046A000E0E72000FFF7EEFE002801D12068D3E705
:1046B000FF2223685A620423267763770126D1E715
:1046C0009446A4E77F7F7F00FFFFFBFF70B5037F69
:1046D00005000226012B29D0012346770377002A03
:1046E00026D0CC784B7824041B021C4388780B78A6
:1046F00004435B031C43CA222B6828005A62773AA2
:104700005A62FFF7DBFE061E41D18022304829683D
:1047100004404C60CB689343CB608B689B0644D5C8
:10472000FF234B62FE3B6B7700232B77300070BD7D
:104730004B7810321A4233D1CA780020092A06D9A0
:104740000A3AD2B20130092AFAD80001C0B20243B3
:104750001204092B38D900200A3BDBB20130092BA7
:10476000FAD80001C4B2887823431B0209282DD946
:1047700000240A38C0B201340928FAD82401E6B26C
:104780000C783043640314431C430443B3E7FF2213
:104790002B6801265A6204236B7700232B77C5E729
:1047A00093430A33DBB24B70C6E72800FFF76AFE7B
:1047B000002801D12968B3E7FF222B685A6204233D
:1047C0002E776B770126B1E70024CCE70026D7E7E8
:1047D0003FFFFF00E021036810B55A688A435A6022
:1047E000822241685200914213D08021826A89015D
:1047F0008A4206D11C680E492140196019680A4393
:104800001A6001225D23C2540022013BC2540320DE
:1048100010BD8021826809028A4203D08021C9002C
:104820008A42E2D140211A688A431A60DDE7C04615
:10483000FFDFFFFFF8B506000C0017008025326887
:1048400093681D4201D10020F8BD631CF8D0002CF4
:1048500004D0FDF7D9FCC01B8442F0D83000FFF72C
:10486000B9FFF1E7F0B54F464646C0B483B099466C
:10487000C0276B4680460C001600FF00DD1D434636
:104880001A6801E0731C0AD19368234213D0BC421A
:10489000F8D1137BDBB22B702B78731CF4D0002E75
:1048A00005D0FDF7B1FC4B46C01A8642E7D840461A
:1048B000FFF790FF00E0002003B00CBC9046994643
:1048C000F0BDC04670B513000D0016000A00C021EF
:1048D00049010400FFF7C6FF002805D0202303206C
:1048E000226E1343236670BD320029002000FFF7BB
:1048F000A1FF0028F2D1C02133002A00C900200006
:10490000FFF7B0FF0028E9D1EDE7C046F8B55646FD
:1049100044465F464D469846F0B45C23160001229B
:10492000C25404000F000A9DFDF76EFC5D23E35C9A
:104930008246DBB26268012B15D082210220490039
:104940008A420BD001225D23E2540022013BE25453
:104950003CBC90469946A246AB46F8BDA1680029EA
:10496000F0D1042BEED10120002FEBD0002EE9D0A6
:104970004346002BE6D05D23E15C042901D00521EC
:10498000E15446218C460023414660462366266456
:104990002152404644216052E3642365E368A763E3
:1049A0009846E023E087A087DB00984500D973E0B4
:1049B0006346E35A012B00D8C9E02368824859684E
:1049C000084058601868410609D418688446402099
:1049D000614608431860E020C000804564D8002A82
:1049E00000D0ABE0E28F012A00D8E5E03A88023738
:1049F000DA60E38F023B9BB2E3870123994645339C
:104A00009846453B9B46E38F002B04D14346E35A2F
:104A1000002B00D1B8E04B46002B16D00122E38FCB
:104A20009146002B11D0022123689A6811420CD0C4
:104A3000E28F012A00D8B5E03A880237DA60E38FC6
:104A4000023B9BB2E387002399464346E35A002B7F
:104A500018D0594623689A68114213D04246A25A88
:104A6000012A00D87EE0DA68414632804246A25AE6
:104A70000236023A92B26252625A01218946012AF2
:104A800000D87BE06B1CBED0FDF7BEFB5346C01ABE
:104A90008542B8D8032055E723684B485968084039
:104AA00058601868410690D5002A4CD13A880237E0
:104AB000DA60E38F013B9BB2E387012399464533DC
:104AC0009846453B9B46E38F002B03D14346E35A70
:104AD000002B59D04B46002B12D00122E38F914678
:104AE000002B0DD0022123689A68114208D03A8821
:104AF0000237DA60E38F013B9BB2E38700239946DC
:104B00004346E35A002B0FD0594623689A68114256
:104B10000AD0DB68424633804346E35A0236013B03
:104B20009BB2A352012399466B1CCCD0FDF76CFBC2
:104B30005346C01A8542C6D8032003E7E28F012AF4
:104B400000D05AE74EE7E28F012AB6D1AEE78021C6
:104B5000236849015868084358601868410600D521
:104B60003DE732E71B7B424633704346E35A01364A
:104B7000013B9BB2A3520123994683E780215A68E7
:104B800049010A435A607DE7524629002000FFF799
:104B900099FE002801D020232366206E431E9841F1
:104BA000C0B2CFE63A7801371A73E38F013B9BB26C
:104BB000E3870023994648E73A7801371A73E38F71
:104BC000013B9BB2E38718E7FFEFFFFFF8B58223B5
:104BD0001700426804000E005B009A4225D03A009C
:104BE00031002000FFF726FE051E06D020230325F6
:104BF000226E134323662800F8BD822362685B009F
:104C00009A42F8D18022A3681202934203D08022F4
:104C1000D2009342EFD1C0213B003200C9002000F6
:104C2000FFF720FE0028E1D1E5E780228368120229
:104C3000934203D08022D2009342D0D140212268F7
:104C400013688B431360CAE7F8B5041E67D00023CE
:104C500083625D33C35CDBB2002B5BD002225D2339
:104C60002068E25403683E3293430360E023E56822
:104C7000DB009D420BD9F0231B019D4242D1236BE7
:104C8000A76A002B44D102230026236312E09D4231
:104C900008D00023276BA362002F07D080260027AF
:104CA000760107E0236BA76A002B01D10123236360
:104CB00080267601A1686268A3690A4321690A43D4
:104CC00061690A43E1690A43216A0A438021890034
:104CD00019400A433A430260626A1543626B154306
:104CE0001A0C04231A402B00134333434360C26958
:104CF0000C4B1340C36100230122002023665D3367
:104D0000E254F8BD0023276BA362002FBBD000271D
:104D10000026CFE75C228354FCF70AFF9EE70120C0
:104D2000EFE7C046FFF7FFFFF0B547461E005C23E4
:104D300080B41700C25C040082B00D000220012A7A
:104D400003D102B004BC9046F0BD0122E254FDF74D
:104D50005BFA5D23E25C80460220012A06D0012234
:104D60005D23E2540022013BE254EAE7002D00D12A
:104D7000A5E00138002FF2D00232E2540023413284
:104D800023662364A563A787E787A3520232A35251
:104D90002365E3648023A2681B029A4200D190E05D
:104DA0002368402219680A4202D119680A431A602E
:104DB000E022E168D200914243D96268002A2CD0F7
:104DC000E28F012A29D00227E38F002B0DD0236820
:104DD0009A68174229D02A880235DA60E38F013BAE
:104DE0009BB2E387E38F002BF1D1424631002000D4
:104DF000FFF768FD002801D020232366A368002B5D
:104E000006D101932368DA6801929B680193019BA4
:104E1000206E431E9841C0B2A1E72A880235DA60AD
:104E2000E38F013B9BB2E387CDE7002E07D0731CD5
:104E3000CAD0FDF7E9F94346C01A8642C4D8032018
:104E40008DE76268002A27D0E28F012A24D002274A
:104E5000E38F002BC9D023689A68174210D0E28FE5
:104E6000012A24D92A880235DA60E38F023B9BB2FB
:104E7000E387E38F002BB8D023689A681742EED1FE
:104E8000002EDCD0731CE3D0FDF7BEF94346C01AF8
:104E90008642DDD8032062E7E28F012A18D92A88EA
:104EA0000235DA60E38F023B9BB2E387CFE72A78D3
:104EB00001351A73E38F013B9BB2E387C8E70120FA
:104EC0004DE780212368C9011A680A431A6068E720
:104ED0002A7801351A73E38F013B9BB2E387B6E76B
:104EE000F0B54F464646C0B41E0082231700426804
:104EF00083B004000D005B009A421AD05C23E25C90
:104F0000012A05D1022003B00CBC90469946F0BDA1
:104F10000122E254FDF778F95D23E25C804602202D
:104F2000012A16D001225D23E2540022013BE25403
:104F3000E9E78368002BE1D104225D33C254013BD1
:104F4000C35C012BDED000963B000A00FFF7DEFCBD
:104F5000D9E7002D00D185E00138002FE2D00332DF
:104F6000E2540023403223662564A7520232A7523E
:104F7000A363A387E387E3642365E023E168DB00A1
:104F8000994268D923683B4A586802405A60802297
:104F9000A0681202904267D040221868024202D1F3
:104FA000186802431A60E0234627DB0099422DD996
:104FB00001239946E35B002B0ED0494623689A688B
:104FC000114217D0DB682B80E35B0235013B9BB2BB
:104FD000E353E35B002BF0D1424631002000FFF7A2
:104FE000F5FD002801D020232366206E431E984142
:104FF000C0B297E7002E07D0731CDBD0FDF704F991
:105000004346C01A8642D5D803208BE70123994630
:10501000E35B002BE0D0494623689A6811420ED02A
:105020001B7B2B70E35B0135013B9BB2E353E35BDE
:10503000002BD1D0494623689A681142F0D1002E46
:10504000E2D0731CE4D0FDF7DFF84346C01A864275
:10505000DED8032066E78020236840015A680243B7
:105060005A6094E701205DE71868034A02401A601D
:1050700092E7C046FFEFFFFFFFBFFFFF012203687B
:10508000D96800201143D96019680A431A60704733
:105090007047C0467047C0467047C0467047C0461C
:1050A0000222036810B5196904000A4202D0D968C7
:1050B0000A4268D1042219690A4202D0D9680A4218
:1050C0004ED1082219690A4202D0D9680A4236D163
:1050D000102219690A4202D0D9680A421CD1012261
:1050E00019690A4202D0D9680A4269D18022196935
:1050F0000A4202D0D9680A4269D1402219690A429B
:1051000002D0D9680A4254D1202219690A4202D039
:10511000D9680A4247D110BD213A1A611932227763
:10512000DA69C0239B0020001A425BD1FFF7B0FF71
:105130002000FFF7B1FF002323772368CFE7113A60
:105140001A61DB690D32227720009B0750D1FFF7EF
:105150009FFF2000FFF7A0FF002323772368B7E716
:10516000093A1A61073222779A69C0239B0020000E
:105170001A423AD1FFF78CFF2000FFF78DFF002382
:10518000237723689DE7053A1A619B690432027709
:105190009B0724D1FFF77CFF2000FFF77DFF002352
:1051A0002377236886E7413A1A61200000F0BEF8B1
:1051B000B1E7813A1A612000FFF770FF2368A3E787
:1051C000033A1A612000FBF7E3F923688EE7023AFD
:1051D000FF3A1A61200000F0ABF823688DE7FFF773
:1051E00059FFDCE7FFF756FFA5E7FFF753FFC6E7D8
:1051F000FFF750FFB0E7C046284A036890423BD013
:105200008022D205904218D0254A904215D0254AD6
:10521000904216D0244A904213D0244A904210D093
:10522000234A90420DD0802293434A69134303607E
:105230008B68C3620B6883621BE0702293434A68E9
:1052400013431C4A1340CA681343802293434A699C
:10525000134303608B68C3620B688362124B9842EE
:1052600005D0124B984202D0114B984201D10B69E4
:105270000363012343617047702293434A681343D9
:105280000C4A1340CA681343802293434A6913436C
:1052900003608B68C3620B688362E8E7002C0140FF
:1052A0000004004000200040004001400044014054
:1052B00000480140FFFCFFFF70B5041E14D03D23E1
:1052C000C35CDBB2002B0AD002233D252068635566
:1052D000211DFFF791FF01230020635570BD3C2283
:1052E0008354FCF75DFCEFE70120F7E770B53C2441
:1052F000035D02000220012B17D03D2570261368A4
:1053000050555868B043586058680E684968304333
:10531000802658609868B043986098680143996007
:105320000123535500230020135570BD7047C0461C
:105330007047C046F0B504006A204746255C80B43B
:105340006838202D02D004BC9046F0BD00293ED024
:105350000138002AF7D08023A5685B019D4230D038
:105360006825635D0220012BEDD00126582300271C
:10537000665520306165E2521233E766E054606E94
:10538000144B47638362144BC362144B036323685B
:10539000984624239C46E04413000A004146FDF74A
:1053A00025F88021236849001A6867550A431A6066
:1053B0009A680020164340229E6099680A439A60CA
:1053C000C1E72369002BCBD10142C9D0BBE7012043
:1053D000B9E7C046E15300082154000831540008E1
:1053E0002021036810B51B68426A0B4010D15A2077
:1053F0001352136808481C682040012418609868FC
:10540000A043986098683F34A04398606A23D154C1
:105410001000FCF7D1F810BDFFFEFFFF7047C0463B
:1054200010B5406AFFF7FAFF10BDC0467047C0468E
:10543000692310B5406AC25C212A1CD06A23C25C71
:10544000222A06D01023C26E1343C366FFF7EEFF75
:1054500010BD026891684906F4D500245A214452CF
:1054600014680C492140012411609168A1439160A6
:105470002022C254E6E7026891680906DED50024BE
:10548000522144521168C034A14311602022C254F9
:10549000D4E7C046DFFEFFFF70B505002A69A968A2
:1054A0002C6811436A692368C0691143544A014357
:1054B00013400B4323606268524BA9691340EA68AA
:1054C00013432A6A6360A36811434F4A13400B4396
:1054D000A3604E4B9C4239D04D4B9C424FD04D4B1C
:1054E0009C420AD04C4B9C4207D080231B0298421E
:1054F00028D0012070BD002BF7D180231B029842D9
:105500000DD0FEF7CFFD69684B081818FAF708FEB2
:105510000004000CE0600020ECE7002B12D1FEF745
:10552000C1FD6B6840005B08C0186968FAF7F8FDB8
:105530002C680F2203075B0F9043184383B2E3608C
:105540000020D7E700230120E360D3E70322334B99
:105550001B6B1340324AD35C80221202904243D12B
:10556000022B26D0D9D9042B06D0082BEAD18023D0
:1055700069685B0248081FE0FEF78EFCD1E7C02196
:105580008022264B89021B6B52020B40934221D092
:10559000B1D980229202934213D08B42A5D18023AD
:1055A0001B02984205D069681E4B48089C4660441F
:1055B000ACE769681C4B48089C466044FAF7B0FDAC
:1055C000B7E780231B029842D1D0802369681B0271
:1055D0004808EBE780231B029842CDD0FEF75CFC25
:1055E00069684B08181891E7022BDCD004D9042B0A
:1055F000F4D0082BE9D07CE7002B00D181E778E7D5
:10560000F369FFEFFFCFFFFFFFF4FFFF003801401A
:105610000044004000480040004C004000100240A0
:105620000494000800127A000024F400436A30B5A4
:10563000DA0706D50168284A4C682240846A22436A
:105640004A609A0706D50168244A4C682240C46A19
:1056500022434A605A0706D50168214A4C68224015
:10566000046B22434A601A0706D501681D4A4C683C
:105670002240446B22434A60DA0606D501681A4A82
:105680008C682240846B22438A609A0606D50168A2
:10569000164A8C682240C46B22438A605A060AD597
:1056A0000168134A4D68046C2A4022434A608022F4
:1056B0005203944209D01B0606D501680D4B4A6877
:1056C0001340826C13434B6030BD4C680A4A224041
:1056D000446C22434A60EEE7FFFFFDFFFFFFFEFF41
:1056E000FFFFFBFFFF7FFFFFFFEFFFFFFFDFFFFF7E
:1056F000FFFFEFFFFFFFF7FFFFFF9FFFF0B54746FC
:105700000C0080B4160007009846069D3A6801E038
:105710006B1C0AD1D36923401B1B59424B419E424B
:10572000F6D0002004BC9046F0BD002D06D0FCF75A
:105730006BFD4346C01A8542E8D23A681168084BAF
:1057400003200B400121136093688B439360202357
:105750006922BB540132BB5400224833FA54E1E7BA
:105760005FFEFFFFF0B54F464646C0B41E006923FA
:10577000C35C040083B00D0017000220202B04D06E
:1057800003B00CBC90469946F0BD002959D00138B1
:10579000002AF5D08023A2685B019A424BD068238F
:1057A000E25C0220012AEBD00122E25400232032E5
:1057B000E3666933E254FCF727FD5023E7520233D6
:1057C000E75280235B01804652279946E35B002B1A
:1057D00016D0E35B0096013B9BB2E35300224346A5
:1057E00080212000FFF78AFF002812D1A3684B45D3
:1057F00017D02B78226801351385E35B002BE8D1A5
:1058000000964346002240212000FFF777FF002842
:1058100001D00320B4E769232022E254013BE05485
:10582000AEE72369002BE4D12B882268DB05DB0D72
:1058300013850235CAE72369002BB0D10142AED0EF
:105840009EE701209CE7C046002330B50400C366F4
:1058500083B0FCF7D9FC2368184A050093420DD0A9
:10586000174A93420AD020236922A3540132A35439
:10587000002200204833E25403B030BD1A681207FA
:105880000FD41B685B07EED580210E4B00220093DE
:10589000C9032B002000FFF731FF0028E3D00320CD
:1058A000EAE78021074B0022009389032B002000A8
:1058B000FFF724FF0028F2D12368E2E70038014017
:1058C00000440040FFFFFF0110B5041E25D06923EE
:1058D000C35CDBB2002B22D0242269230121E254D5
:1058E0002268200013688B431360FFF7D5FD012861
:1058F00013D0636A002B17D123680D4A5968200022
:105900000A402A215A609A688A439A6001221968DB
:105910000A431A60FFF798FF10BD0120FCE76822D8
:105920008354FCF76BF9D7E72000FFF77FFEE3E72E
:10593000FFB7FFFF030010B5044A9B00D3185B6854
:105940001118087A5B68984710BDC046AC16002055
:1059500010B5084A0300115C0020002908D101316C
:10596000D154D1189B00D3185B68087A1B689847FC
:1059700010BDC046AC16002070B50400044DA40054
:105980002C1964682818A468007AA04770BDC04626
:10599000AC16002070B50400044DA4002C196468F6
:1059A0002818E468007AA04770BDC046AC160020F5
:1059B000030010B5044C9B00E3185B6820181B69BA
:1059C000007A984710BDC046AC160020F0B5264CB2
:1059D0000023220005681668AE420CD001330C3259
:1059E000022BF8D12368002B3BD0E3680026002B64
:1059F00023D03000F0BD56688768BE42EED11789CB
:105A0000C688B742EAD15A0000290ED0D1188900C1
:105A10006118498900260029EBD101315E1CFF3154
:105A2000D3189B00E3185981E3E7D1188900611866
:105A300049895E1C013189B2F2E7023601335A000E
:105A4000D718BF00E551E51987686F60C0882881C5
:105A500000206881002901D10131E1E7802149005E
:105A6000DEE70126EBE7C0468C160020016810B582
:105A7000002917D00C78202C09D93A2C12D00B0011
:105A800001E03A2A05D001331A78202AF9D80020FB
:105A900010BD01318B4205D1302C03D1013303609D
:105AA0000020F5E701204042F2E7C04610B500288B
:105AB00007D00368002B04D0802252019A5C002A90
:105AC00001D1092010BD064A995A82889142F8D125
:105AD000044A985CFFF72EFFC307F2D40020F1E7D9
